:100000000C942A000C9447000C9447000C94470071
:100010000C9447000C9447000C9447000C94470044
:100020000C9447000C9447000C9447000C94470034
:100030000C9447000C9447000C9447000C94470024
:100040000C9447000C9447000C9447000C94470014
:100050000C94470011241FBECFE5D4E0DEBFCDBF16
:1000600010E0A0E6B0E0E8E8F2E002C005900D92F2
:10007000A237B107D9F720E0A2E7B0E001C01D9296
:10008000A337B207E1F70E9492000C9442010C944E
:100090000000CF93DF93CDB7DEB761970FB6F8942A
:1000A000DEBF0FBECDBF81E1E1E6F0E0DE011196DB
:1000B00001900D928A95E1F780E18ABB80E20BC046
:1000C0008AE08A95F1F700C089B380958F7031F48A
:1000D0009AB3990F9ABB9AB39111F2CF8823C1F0CA
:1000E0009AB320E002C02F5F969594FFFCCF90E07A
:1000F00002C09F5F869580FFFCCF220F220F920FD8
:10010000E1E0F0E0EC0FFD1FE90FF11D808101C07F
:100110008FE761960FB6F894DEBF0FBECDBFDF91BB
:10012000CF9108951BBA0E940201C0E0D0E00FE712
:10013000C83C81F40E9449000F3729F48F3731F40D
:10014000082FC0E007C0082FC0E004C0182F082FF8
:10015000C0E0D1E0DD2321F0812F0E943901D0E001
:10016000CF5FE6CF962F92959F7092BB811104C00E
:1001700082B38F7E82BB03C082B3806182BB8091D9
:1001800072008F5F8093720082B3806282BB809125
:1001900072008F5F80937200809172008F5F8093F6
:1001A000720082B38F7D82BB809172008F5F8093DB
:1001B000720080916000882319F010926000089509
:1001C00082B3807F82BB82B36F70682B62BB8091E9
:1001D00072008F5F8093720082B3806282BB8091D5
:1001E00072008F5F80937200809172008F5F8093A6
:1001F000720082B38F7D82BB809172008F5F80938B
:100200007200089512BA8FEF81BB2FEF89E698E153
:10021000215080409040E1F700C000006CE280E097
:100220000E94B20025E82A95F1F700006CE280E018
:100230000E94B20085E88A95F1F700006EE080E048
:100240000E94B20095E89A95F1F7000066E080E020
:100250000E94B20025E82A95F1F7000061E080E0F5
:100260000E94B2008FE697E10197F1F700C000000D
:100270000895682F81E00E94B20085E88A95F1F721
:0802800000000895F894FFCF7F
:10028800013132334134353642373839432A302345
:02029800440020
:00000001FF
