S011000066756E6374696F6E732E737265633A
S11300000C942A000C9434000C9434000C943400A6
S11300100C9434000C9434000C9434000C9434008C
S11300200C9434000C9434000C9434000C9434007C
S11300300C9434000C9434000C9434000C9434006C
S11300400C9434000C9434000C9434000C9434005C
S11300500C94340011241FBECFE5D4E0DEBFCDBF25
S11300600E9436000C9456000C9400008FEF8ABB5B
S113007017BA96B3892F8770382F3695282F26956F
S113008026952327922790FD02C090E001C091E0BD
S1130090833008F492602EEF280F223020F0853050
S11300A011F0873009F494609BBBE3CFF894FFCF41
S9030000FC
