:100000000C942A000C9447000C9447000C94470071
:100010000C9447000C9447000C9447000C94470044
:100020000C9447000C9447000C9447000C94470034
:100030000C9447000C9447000C9447000C94470024
:100040000C9447000C9447000C9447000C94470014
:100050000C94470011241FBECFE5D4E0DEBFCDBF16
:1000600010E0A0E6B0E0E8EAF3E002C005900D92EF
:10007000A039B107D9F720E0A0E9B0E001C01D9296
:10008000A139B207E1F70E9407010C94D2010C9448
:100090000000962F92959F7092BB811104C082B38D
:1000A0008F7E82BB03C082B3806182BB809190004F
:1000B0008F5F8093900082B3806282BB80919000BA
:1000C0008F5F80939000809190008F5F809390006D
:1000D00082B38F7D82BB809190008F5F8093900070
:1000E00080916000882319F010926000089582B317
:1000F000807F82BB82B36F70682B62BB809190005F
:100100008F5F8093900082B3806282BB8091900069
:100110008F5F80939000809190008F5F809390001C
:1001200082B38F7D82BB809190008F5F809390001F
:10013000089512BA8FEF81BB2FEF89E698E1215025
:1001400080409040E1F700C000006CE280E00E9437
:10015000490025E82A95F1F700006CE280E00E9452
:10016000490085E88A95F1F700006EE080E00E9482
:10017000490095E89A95F1F7000066E080E00E945A
:10018000490025E82A95F1F7000061E080E00E942F
:1001900049008FE697E10197F1F700C0000008954C
:1001A00061E080E00E9449008FE99FE00197F1F74C
:1001B00000C0000008958150823090F4662381F0E1
:1001C000613170F490E00296615020E4829F600DEE
:1001D000112480E00E94490085E88A95F1F700002B
:1001E0000895682F81E00E94490085E88A95F1F71B
:1001F00000000895CF93DF93EC0103C021960E9485
:10020000F10088818111FACFDF91CF910895CF93CA
:10021000DF93CDB7DEB761970FB6F894DEBF0FBEA0
:10022000CDBF0E94990081E1EFE7F0E0DE01119679
:1002300001900D928A95E1F788E40E94F1002FEF7A
:1002400089E698E1215080409040E1F700C000002D
:100250000E94D0002FEF84E39CE02150804090402A
:10026000E1F700C0000061E081E00E94DB0081E670
:1002700090E00E94FA0067E082E00E94DB0087E6DF
:1002800090E00E94FA002FEF89E698E1215080402B
:100290009040E1F700C000000E94D0002FEF84E3FF
:1002A0009CE0215080409040E1F700C0000000E059
:1002B00010E014C0E1E0F0E0EC0FFD1FE00FF11FD3
:1002C00080810E94F1002FEF84E39CE02150804068
:1002D0009040E1F700C000000F5F1F4F0031110593
:1002E0004CF361E082E00E94DB008EE690E00E9429
:1002F000FA002FEF84E39CE0215080409040E1F72A
:1003000000C0000060E182E00E94DB002FEF84E388
:100310009CE0215080409040E1F700C000000FE0D9
:1003200010E00FC0602F82E00E94DB002FEF84E31B
:100330009CE0215080409040E1F700C00000015057
:1003400011091016110674F360E181E00E94DB00D0
:100350002FEF84E39CE0215080409040E1F700C003
:1003600000000FE010E00FC0602F81E00E94DB0072
:100370002FEF84E39CE0215080409040E1F700C0E3
:100380000000015011091016110674F30E94D000EC
:100390002FEF84E39CE0215080409040E1F700C0C3
:0803A00000004ACFF894FFCFE2
:1003A8000148656C6C6F006D6963726F2100676846
:1003B800696A6B6C6D6E6F707172737475760030EC
:1003C80031323334353637383961626364656600F3
:00000001FF
