S01500004C55545F524F4D5F424F4E55532E73726563E7
S11300000C942E000C9438000C9438000C94380096
S11300100C9438000C9438000C9438000C9438007C
S11300200C9438000C9438000C9438000C9438006C
S11300300C9438000C9438000C9438000C9438005C
S11300400C9438000C9438000C9438000C9438004C
S11300500C943800BF86DBCF66ED7D0711241FBEEC
S1130060CFE5D4E0DEBFCDBF0E943A000C9445003A
S11300700C9400008FEF8ABB17BAE6B3E770F0E088
S1110080EC5AFF4FE491EBBBF8CFF894FFCF9E
S9030000FC
