:100000000C942A000C9447000C9447000C94470071
:100010000C9447000C9447000C9447000C94470044
:100020000C9447000C9447000C9447000C94470034
:100030000C9447000C9447000C9447000C94470024
:100040000C9447000C9447000C9447000C94470014
:100050000C94470011241FBECFE5D4E0DEBFCDBF16
:1000600010E0A0E6B0E0E8E5F3E002C005900D92F4
:10007000A236B107D9F720E0A2E6B0E001C01D9298
:10008000A336B207E1F70E94FC000C94AA010C947D
:100090000000962F92959F7092BB811104C082B38D
:1000A0008F7E82BB03C082B3806182BB809162007D
:1000B0008F5F8093620082B3806282BB8091620016
:1000C0008F5F80936200809162008F5F80936200F7
:1000D00082B38F7D82BB809162008F5F80936200CC
:1000E00080916000882319F010926000089582B317
:1000F000807F82BB82B36F70682B62BB809162008D
:100100008F5F8093620082B3806282BB80916200C5
:100110008F5F80936200809162008F5F80936200A6
:1001200082B38F7D82BB809162008F5F809362007B
:10013000089512BA8FEF81BB2FEF89E698E1215025
:1001400080409040E1F700C000006CE280E00E9437
:10015000490025E82A95F1F700006CE280E00E9452
:10016000490085E88A95F1F700006EE080E00E9482
:10017000490095E89A95F1F7000066E080E00E945A
:10018000490025E82A95F1F7000061E080E00E942F
:1001900049008FE697E10197F1F700C0000008954C
:1001A0008150823090F4662381F0613170F490E0E8
:1001B0000296615020E4829F600D112480E00E942D
:1001C000490085E88A95F1F700000895682F81E0DD
:1001D0000E94490085E88A95F1F700000895CF93C1
:1001E000DF93EC0103C021960E94E6008881811113
:1001F000FACFDF91CF910895CF93DF93CDB7DEB7DC
:1002000064970FB6F894DEBF0FBECDBF0E94990071
:1002100080E687B987E886B9369905C0349903C066
:1002200086B1806486B93699F7CF349BF5CF86B115
:100230008F7E86B925B130E0A4EFB1E00E9487013E
:100240002FEF30E040E050E00E946501C90164E614
:1002500070E00E945101CB01EAE0F0E0BF010E9492
:100260005101482FC901BF010E945101282FCB0124
:10027000BF010E94510196E599839DE39A83405DF9
:100280004B839EE29C83805D8D83205D2E831F8245
:1002900061E081E00E94D000CE0101960E94EF0053
:1002A000BBCF97FB072E16F4009407D077FD09D03B
:1002B0000E94960107FC05D03EF4909581959F4FD2
:1002C0000895709561957F4F0895A1E21A2EAA1B9B
:1002D000BB1BFD010DC0AA1FBB1FEE1FFF1FA217F6
:1002E000B307E407F50720F0A21BB30BE40BF50BF3
:1002F000661F771F881F991F1A9469F7609570957C
:10030000809590959B01AC01BD01CF010895A29FFE
:10031000B001B39FC001A39F700D811D1124911DD9
:10032000B29F700D811D1124911D0895AA1BBB1B46
:1003300051E107C0AA1FBB1FA617B70710F0A61BE5
:10034000B70B881F991F5A95A9F780959095BC0106
:08035000CD010895F894FFCFE0
:020358000100A2
:00000001FF
